{
  "_format": "hh-sol-artifact-1",
  "contractName": "Neapolitan",
  "sourceName": "contracts/neapolitan.sol",
  "abi": [
    {
      "inputs": [],
      "stateMutability": "nonpayable",
      "type": "constructor"
    },
    {
      "anonymous": false,
      "inputs": [
        {
          "indexed": true,
          "internalType": "address",
          "name": "owner",
          "type": "address"
        },
        {
          "indexed": true,
          "internalType": "address",
          "name": "approved",
          "type": "address"
        },
        {
          "indexed": true,
          "internalType": "uint256",
          "name": "tokenId",
          "type": "uint256"
        }
      ],
      "name": "Approval",
      "type": "event"
    },
    {
      "anonymous": false,
      "inputs": [
        {
          "indexed": true,
          "internalType": "address",
          "name": "owner",
          "type": "address"
        },
        {
          "indexed": true,
          "internalType": "address",
          "name": "operator",
          "type": "address"
        },
        {
          "indexed": false,
          "internalType": "bool",
          "name": "approved",
          "type": "bool"
        }
      ],
      "name": "ApprovalForAll",
      "type": "event"
    },
    {
      "anonymous": false,
      "inputs": [
        {
          "indexed": true,
          "internalType": "address",
          "name": "previousOwner",
          "type": "address"
        },
        {
          "indexed": true,
          "internalType": "address",
          "name": "newOwner",
          "type": "address"
        }
      ],
      "name": "OwnershipTransferred",
      "type": "event"
    },
    {
      "anonymous": false,
      "inputs": [
        {
          "indexed": true,
          "internalType": "address",
          "name": "from",
          "type": "address"
        },
        {
          "indexed": true,
          "internalType": "address",
          "name": "to",
          "type": "address"
        },
        {
          "indexed": true,
          "internalType": "uint256",
          "name": "tokenId",
          "type": "uint256"
        }
      ],
      "name": "Transfer",
      "type": "event"
    },
    {
      "inputs": [],
      "name": "MAX_GIFT",
      "outputs": [
        {
          "internalType": "uint256",
          "name": "",
          "type": "uint256"
        }
      ],
      "stateMutability": "view",
      "type": "function"
    },
    {
      "inputs": [],
      "name": "MAX_NEAPOLITANS",
      "outputs": [
        {
          "internalType": "uint256",
          "name": "",
          "type": "uint256"
        }
      ],
      "stateMutability": "view",
      "type": "function"
    },
    {
      "inputs": [
        {
          "internalType": "address",
          "name": "to",
          "type": "address"
        },
        {
          "internalType": "uint256",
          "name": "tokenId",
          "type": "uint256"
        }
      ],
      "name": "approve",
      "outputs": [],
      "stateMutability": "nonpayable",
      "type": "function"
    },
    {
      "inputs": [
        {
          "internalType": "address",
          "name": "owner",
          "type": "address"
        }
      ],
      "name": "balanceOf",
      "outputs": [
        {
          "internalType": "uint256",
          "name": "",
          "type": "uint256"
        }
      ],
      "stateMutability": "view",
      "type": "function"
    },
    {
      "inputs": [],
      "name": "baseURI",
      "outputs": [
        {
          "internalType": "string",
          "name": "",
          "type": "string"
        }
      ],
      "stateMutability": "view",
      "type": "function"
    },
    {
      "inputs": [],
      "name": "flipSaleState",
      "outputs": [],
      "stateMutability": "nonpayable",
      "type": "function"
    },
    {
      "inputs": [
        {
          "internalType": "uint256",
          "name": "tokenId",
          "type": "uint256"
        }
      ],
      "name": "getApproved",
      "outputs": [
        {
          "internalType": "address",
          "name": "",
          "type": "address"
        }
      ],
      "stateMutability": "view",
      "type": "function"
    },
    {
      "inputs": [
        {
          "internalType": "address[]",
          "name": "to",
          "type": "address[]"
        }
      ],
      "name": "gift",
      "outputs": [],
      "stateMutability": "nonpayable",
      "type": "function"
    },
    {
      "inputs": [
        {
          "internalType": "address",
          "name": "owner",
          "type": "address"
        },
        {
          "internalType": "address",
          "name": "operator",
          "type": "address"
        }
      ],
      "name": "isApprovedForAll",
      "outputs": [
        {
          "internalType": "bool",
          "name": "",
          "type": "bool"
        }
      ],
      "stateMutability": "view",
      "type": "function"
    },
    {
      "inputs": [],
      "name": "maxNeapolitanPurchase",
      "outputs": [
        {
          "internalType": "uint256",
          "name": "",
          "type": "uint256"
        }
      ],
      "stateMutability": "view",
      "type": "function"
    },
    {
      "inputs": [
        {
          "internalType": "uint256",
          "name": "numberOfTokens",
          "type": "uint256"
        }
      ],
      "name": "mintNeapolitans",
      "outputs": [],
      "stateMutability": "payable",
      "type": "function"
    },
    {
      "inputs": [],
      "name": "name",
      "outputs": [
        {
          "internalType": "string",
          "name": "",
          "type": "string"
        }
      ],
      "stateMutability": "view",
      "type": "function"
    },
    {
      "inputs": [],
      "name": "neapolitanPrice",
      "outputs": [
        {
          "internalType": "uint256",
          "name": "",
          "type": "uint256"
        }
      ],
      "stateMutability": "view",
      "type": "function"
    },
    {
      "inputs": [],
      "name": "owner",
      "outputs": [
        {
          "internalType": "address",
          "name": "",
          "type": "address"
        }
      ],
      "stateMutability": "view",
      "type": "function"
    },
    {
      "inputs": [
        {
          "internalType": "uint256",
          "name": "tokenId",
          "type": "uint256"
        }
      ],
      "name": "ownerOf",
      "outputs": [
        {
          "internalType": "address",
          "name": "",
          "type": "address"
        }
      ],
      "stateMutability": "view",
      "type": "function"
    },
    {
      "inputs": [],
      "name": "renounceOwnership",
      "outputs": [],
      "stateMutability": "nonpayable",
      "type": "function"
    },
    {
      "inputs": [
        {
          "internalType": "address",
          "name": "from",
          "type": "address"
        },
        {
          "internalType": "address",
          "name": "to",
          "type": "address"
        },
        {
          "internalType": "uint256",
          "name": "tokenId",
          "type": "uint256"
        }
      ],
      "name": "safeTransferFrom",
      "outputs": [],
      "stateMutability": "nonpayable",
      "type": "function"
    },
    {
      "inputs": [
        {
          "internalType": "address",
          "name": "from",
          "type": "address"
        },
        {
          "internalType": "address",
          "name": "to",
          "type": "address"
        },
        {
          "internalType": "uint256",
          "name": "tokenId",
          "type": "uint256"
        },
        {
          "internalType": "bytes",
          "name": "_data",
          "type": "bytes"
        }
      ],
      "name": "safeTransferFrom",
      "outputs": [],
      "stateMutability": "nonpayable",
      "type": "function"
    },
    {
      "inputs": [],
      "name": "saleIsActive",
      "outputs": [
        {
          "internalType": "bool",
          "name": "",
          "type": "bool"
        }
      ],
      "stateMutability": "view",
      "type": "function"
    },
    {
      "inputs": [
        {
          "internalType": "address",
          "name": "operator",
          "type": "address"
        },
        {
          "internalType": "bool",
          "name": "approved",
          "type": "bool"
        }
      ],
      "name": "setApprovalForAll",
      "outputs": [],
      "stateMutability": "nonpayable",
      "type": "function"
    },
    {
      "inputs": [
        {
          "internalType": "string",
          "name": "baseURI",
          "type": "string"
        }
      ],
      "name": "setBaseURI",
      "outputs": [],
      "stateMutability": "nonpayable",
      "type": "function"
    },
    {
      "inputs": [
        {
          "internalType": "bytes4",
          "name": "interfaceId",
          "type": "bytes4"
        }
      ],
      "name": "supportsInterface",
      "outputs": [
        {
          "internalType": "bool",
          "name": "",
          "type": "bool"
        }
      ],
      "stateMutability": "view",
      "type": "function"
    },
    {
      "inputs": [],
      "name": "symbol",
      "outputs": [
        {
          "internalType": "string",
          "name": "",
          "type": "string"
        }
      ],
      "stateMutability": "view",
      "type": "function"
    },
    {
      "inputs": [
        {
          "internalType": "uint256",
          "name": "index",
          "type": "uint256"
        }
      ],
      "name": "tokenByIndex",
      "outputs": [
        {
          "internalType": "uint256",
          "name": "",
          "type": "uint256"
        }
      ],
      "stateMutability": "view",
      "type": "function"
    },
    {
      "inputs": [
        {
          "internalType": "address",
          "name": "owner",
          "type": "address"
        },
        {
          "internalType": "uint256",
          "name": "index",
          "type": "uint256"
        }
      ],
      "name": "tokenOfOwnerByIndex",
      "outputs": [
        {
          "internalType": "uint256",
          "name": "",
          "type": "uint256"
        }
      ],
      "stateMutability": "view",
      "type": "function"
    },
    {
      "inputs": [
        {
          "internalType": "uint256",
          "name": "tokenId",
          "type": "uint256"
        }
      ],
      "name": "tokenURI",
      "outputs": [
        {
          "internalType": "string",
          "name": "",
          "type": "string"
        }
      ],
      "stateMutability": "view",
      "type": "function"
    },
    {
      "inputs": [],
      "name": "totalGiftSupply",
      "outputs": [
        {
          "internalType": "uint256",
          "name": "",
          "type": "uint256"
        }
      ],
      "stateMutability": "view",
      "type": "function"
    },
    {
      "inputs": [],
      "name": "totalSupply",
      "outputs": [
        {
          "internalType": "uint256",
          "name": "",
          "type": "uint256"
        }
      ],
      "stateMutability": "view",
      "type": "function"
    },
    {
      "inputs": [
        {
          "internalType": "address",
          "name": "from",
          "type": "address"
        },
        {
          "internalType": "address",
          "name": "to",
          "type": "address"
        },
        {
          "internalType": "uint256",
          "name": "tokenId",
          "type": "uint256"
        }
      ],
      "name": "transferFrom",
      "outputs": [],
      "stateMutability": "nonpayable",
      "type": "function"
    },
    {
      "inputs": [
        {
          "internalType": "address",
          "name": "newOwner",
          "type": "address"
        }
      ],
      "name": "transferOwnership",
      "outputs": [],
      "stateMutability": "nonpayable",
      "type": "function"
    },
    {
      "inputs": [],
      "name": "withdraw",
      "outputs": [],
      "stateMutability": "nonpayable",
      "type": "function"
    }
  ],
  "bytecode": "0x6080604052600c805474a04562f2659fa2a49cc2490c9ec9223b7c990bd8006001600160a81b0319909116179055600d80546001600160a01b03191673505d07c4a6605e90300fd81ca6797c17108eba511790553480156200006057600080fd5b50604080518082018252600b81526a4e6561706f6c6974616e7360a81b602080830191909152825180840190935260038352624e454160e81b9083015290620000b06301ffc9a760e01b62000175565b8151620000c5906006906020850190620001fe565b508051620000db906007906020840190620001fe565b50620000ee6380ac58cd60e01b62000175565b62000100635b5e139f60e01b62000175565b6200011263780e9d6360e01b62000175565b506000905062000121620001fa565b600a80546001600160a01b0319166001600160a01b038316908117909155604051919250906000907f8be0079c531659141344cd1fd0a4f28419497f9722a3daafe3b4186f6b6457e0908290a3506200029a565b6001600160e01b03198082161415620001d5576040805162461bcd60e51b815260206004820152601c60248201527f4552433136353a20696e76616c696420696e7465726661636520696400000000604482015290519081900360640190fd5b6001600160e01b0319166000908152602081905260409020805460ff19166001179055565b3390565b828054600181600116156101000203166002900490600052602060002090601f016020900481019282601f106200024157805160ff191683800117855562000271565b8280016001018555821562000271579182015b828111156200027157825182559160200191906001019062000254565b506200027f92915062000283565b5090565b5b808211156200027f576000815560010162000284565b61328280620002aa6000396000f3fe6080604052600436106101d85760003560e01c80636352211e11610102578063bcc49f7f11610095578063e985e9c511610064578063e985e9c514610874578063eb8d2444146108bc578063efb56368146108d1578063f2fde38b146108e6576101d8565b8063bcc49f7f1461080b578063c87b56dd14610820578063d6c29b4e1461084a578063d6f407c71461085f576101d8565b80638da5cb5b116100d15780638da5cb5b146106b957806395d89b41146106ce578063a22cb465146106e3578063b88d4fde1461072b576101d8565b80636352211e146106255780636c0360eb1461064f57806370a0823114610664578063715018a6146106a4576101d8565b806323b872dd1161017a57806342842e0e1161014957806342842e0e146104e357806347fef6ff146105335780634f6ccce71461054857806355f804b314610572576101d8565b806323b872dd146104235780632f745c591461047357806334918dfd146104b95780633ccfd60b146104ce576101d8565b806308b79df2116101b657806308b79df21461031a578063095ea7b314610339578063163e1e611461037f57806318160ddd146103fc576101d8565b806301ffc9a7146101dd57806306fdde031461023d578063081812fc146102c7575b600080fd5b3480156101e957600080fd5b506102296004803603602081101561020057600080fd5b50357fffffffff0000000000000000000000000000000000000000000000000000000016610926565b604080519115158252519081900360200190f35b34801561024957600080fd5b50610252610961565b6040805160208082528351818301528351919283929083019185019080838360005b8381101561028c578181015183820152602001610274565b50505050905090810190601f1680156102b95780820380516001836020036101000a031916815260200191505b509250505060405180910390f35b3480156102d357600080fd5b506102f1600480360360208110156102ea57600080fd5b5035610a15565b6040805173ffffffffffffffffffffffffffffffffffffffff9092168252519081900360200190f35b6103376004803603602081101561033057600080fd5b5035610a9e565b005b34801561034557600080fd5b506103376004803603604081101561035c57600080fd5b5073ffffffffffffffffffffffffffffffffffffffff8135169060200135610c7d565b34801561038b57600080fd5b50610337600480360360208110156103a257600080fd5b8101906020810181356401000000008111156103bd57600080fd5b8201836020820111156103cf57600080fd5b803590602001918460208302840111640100000000831117156103f157600080fd5b509092509050610dc0565b34801561040857600080fd5b50610411610fa5565b60408051918252519081900360200190f35b34801561042f57600080fd5b506103376004803603606081101561044657600080fd5b5073ffffffffffffffffffffffffffffffffffffffff813581169160208101359091169060400135610fb6565b34801561047f57600080fd5b506104116004803603604081101561049657600080fd5b5073ffffffffffffffffffffffffffffffffffffffff8135169060200135611027565b3480156104c557600080fd5b5061033761105f565b3480156104da57600080fd5b50610337611139565b3480156104ef57600080fd5b506103376004803603606081101561050657600080fd5b5073ffffffffffffffffffffffffffffffffffffffff81358116916020810135909116906040013561128f565b34801561053f57600080fd5b506104116112aa565b34801561055457600080fd5b506104116004803603602081101561056b57600080fd5b50356112b0565b34801561057e57600080fd5b506103376004803603602081101561059557600080fd5b8101906020810181356401000000008111156105b057600080fd5b8201836020820111156105c257600080fd5b803590602001918460018302840111640100000000831117156105e457600080fd5b91908080601f0160208091040260200160405190810160405280939291908181526020018383808284376000920191909152509295506112c6945050505050565b34801561063157600080fd5b506102f16004803603602081101561064857600080fd5b503561137a565b34801561065b57600080fd5b506102526113a2565b34801561067057600080fd5b506104116004803603602081101561068757600080fd5b503573ffffffffffffffffffffffffffffffffffffffff16611421565b3480156106b057600080fd5b506103376114bd565b3480156106c557600080fd5b506102f16115d4565b3480156106da57600080fd5b506102526115f0565b3480156106ef57600080fd5b506103376004803603604081101561070657600080fd5b5073ffffffffffffffffffffffffffffffffffffffff8135169060200135151561166f565b34801561073757600080fd5b506103376004803603608081101561074e57600080fd5b73ffffffffffffffffffffffffffffffffffffffff82358116926020810135909116916040820135919081019060808101606082013564010000000081111561079657600080fd5b8201836020820111156107a857600080fd5b803590602001918460018302840111640100000000831117156107ca57600080fd5b91908080601f0160208091040260200160405190810160405280939291908181526020018383808284376000920191909152509295506117e0945050505050565b34801561081757600080fd5b50610411611858565b34801561082c57600080fd5b506102526004803603602081101561084357600080fd5b5035611863565b34801561085657600080fd5b50610411611bd2565b34801561086b57600080fd5b50610411611bd7565b34801561088057600080fd5b506102296004803603604081101561089757600080fd5b5073ffffffffffffffffffffffffffffffffffffffff81358116916020013516611bdd565b3480156108c857600080fd5b50610229611c18565b3480156108dd57600080fd5b50610411611c21565b3480156108f257600080fd5b506103376004803603602081101561090957600080fd5b503573ffffffffffffffffffffffffffffffffffffffff16611c26565b7fffffffff00000000000000000000000000000000000000000000000000000000811660009081526020819052604090205460ff165b919050565b60068054604080516020601f60027fffffffffffffffffffffffffffffffffffffffffffffffffffffffffffffffff610100600188161502019095169490940493840181900481028201810190925282815260609390929091830182828015610a0b5780601f106109e057610100808354040283529160200191610a0b565b820191906000526020600020905b8154815290600101906020018083116109ee57829003601f168201915b5050505050905090565b6000610a2082611dc8565b610a75576040517f08c379a000000000000000000000000000000000000000000000000000000000815260040180806020018281038252602c815260200180613121602c913960400191505060405180910390fd5b5060009081526004602052604090205473ffffffffffffffffffffffffffffffffffffffff1690565b600c5460ff16610af9576040517f08c379a000000000000000000000000000000000000000000000000000000000815260040180806020018281038252602781526020018061314d6027913960400191505060405180910390fd5b6014811115610b53576040517f08c379a00000000000000000000000000000000000000000000000000000000081526004018080602001828103825260228152602001806130056022913960400191505060405180910390fd5b612710610b6882610b62610fa5565b90611dd5565b1115610bbf576040517f08c379a000000000000000000000000000000000000000000000000000000000815260040180806020018281038252602f8152602001806131cc602f913960400191505060405180910390fd5b34610bd1662386f26fc1000083611e49565b1115610c3e57604080517f08c379a000000000000000000000000000000000000000000000000000000000815260206004820152601f60248201527f45746865722076616c75652073656e74206973206e6f7420636f727265637400604482015290519081900360640190fd5b60005b81811015610c79576000610c53610fa5565b9050612710610c60610fa5565b1015610c7057610c703382611ebc565b50600101610c41565b5050565b6000610c888261137a565b90508073ffffffffffffffffffffffffffffffffffffffff168373ffffffffffffffffffffffffffffffffffffffff161415610d0f576040517f08c379a00000000000000000000000000000000000000000000000000000000081526004018080602001828103825260218152602001806131fb6021913960400191505060405180910390fd5b8073ffffffffffffffffffffffffffffffffffffffff16610d2e611ed6565b73ffffffffffffffffffffffffffffffffffffffff161480610d5c5750610d5c81610d57611ed6565b611bdd565b610db1576040517f08c379a00000000000000000000000000000000000000000000000000000000081526004018080602001828103825260388152602001806130536038913960400191505060405180910390fd5b610dbb8383611eda565b505050565b610dc8611ed6565b73ffffffffffffffffffffffffffffffffffffffff16610de66115d4565b73ffffffffffffffffffffffffffffffffffffffff1614610e6857604080517f08c379a000000000000000000000000000000000000000000000000000000000815260206004820181905260248201527f4f776e61626c653a2063616c6c6572206973206e6f7420746865206f776e6572604482015290519081900360640190fd5b612710610e73610fa5565b10610edf57604080517f08c379a000000000000000000000000000000000000000000000000000000000815260206004820152601b60248201527f416c6c20746f6b656e732068617665206265656e206d696e7465640000000000604482015290519081900360640190fd5b600b54601e9082011115610f5457604080517f08c379a000000000000000000000000000000000000000000000000000000000815260206004820152601e60248201527f4e6f7420656e6f75676820746f6b656e73206c65667420746f20676966740000604482015290519081900360640190fd5b60005b81811015610dbb57600b805460010190819055610f9c848484818110610f7957fe5b9050602002013573ffffffffffffffffffffffffffffffffffffffff1682611ebc565b50600101610f57565b6000610fb16002611f7a565b905090565b610fc7610fc1611ed6565b82611f85565b61101c576040517f08c379a000000000000000000000000000000000000000000000000000000000815260040180806020018281038252603181526020018061321c6031913960400191505060405180910390fd5b610dbb838383612077565b73ffffffffffffffffffffffffffffffffffffffff821660009081526001602052604081206110569083612252565b90505b92915050565b611067611ed6565b73ffffffffffffffffffffffffffffffffffffffff166110856115d4565b73ffffffffffffffffffffffffffffffffffffffff161461110757604080517f08c379a000000000000000000000000000000000000000000000000000000000815260206004820181905260248201527f4f776e61626c653a2063616c6c6572206973206e6f7420746865206f776e6572604482015290519081900360640190fd5b600c80547fffffffffffffffffffffffffffffffffffffffffffffffffffffffffffffff00811660ff90911615179055565b611141611ed6565b73ffffffffffffffffffffffffffffffffffffffff1661115f6115d4565b73ffffffffffffffffffffffffffffffffffffffff16146111e157604080517f08c379a000000000000000000000000000000000000000000000000000000000815260206004820181905260248201527f4f776e61626c653a2063616c6c6572206973206e6f7420746865206f776e6572604482015290519081900360640190fd5b4760006111fa60646111f4846032611e49565b9061225e565b600c54604051919250610100900473ffffffffffffffffffffffffffffffffffffffff16906108fc8315029083906000818181858888f19350505050158015611247573d6000803e3d6000fd5b50600d5460405173ffffffffffffffffffffffffffffffffffffffff9091169082156108fc029083906000818181858888f19350505050158015610dbb573d6000803e3d6000fd5b610dbb838383604051806020016040528060008152506117e0565b61271081565b6000806112be6002846122df565b509392505050565b6112ce611ed6565b73ffffffffffffffffffffffffffffffffffffffff166112ec6115d4565b73ffffffffffffffffffffffffffffffffffffffff161461136e57604080517f08c379a000000000000000000000000000000000000000000000000000000000815260206004820181905260248201527f4f776e61626c653a2063616c6c6572206973206e6f7420746865206f776e6572604482015290519081900360640190fd5b611377816122fb565b50565b6000611059826040518060600160405280602981526020016130b5602991396002919061230e565b60098054604080516020601f60027fffffffffffffffffffffffffffffffffffffffffffffffffffffffffffffffff610100600188161502019095169490940493840181900481028201810190925282815260609390929091830182828015610a0b5780601f106109e057610100808354040283529160200191610a0b565b600073ffffffffffffffffffffffffffffffffffffffff821661148f576040517f08c379a000000000000000000000000000000000000000000000000000000000815260040180806020018281038252602a81526020018061308b602a913960400191505060405180910390fd5b73ffffffffffffffffffffffffffffffffffffffff8216600090815260016020526040902061105990611f7a565b6114c5611ed6565b73ffffffffffffffffffffffffffffffffffffffff166114e36115d4565b73ffffffffffffffffffffffffffffffffffffffff161461156557604080517f08c379a000000000000000000000000000000000000000000000000000000000815260206004820181905260248201527f4f776e61626c653a2063616c6c6572206973206e6f7420746865206f776e6572604482015290519081900360640190fd5b600a5460405160009173ffffffffffffffffffffffffffffffffffffffff16907f8be0079c531659141344cd1fd0a4f28419497f9722a3daafe3b4186f6b6457e0908390a3600a80547fffffffffffffffffffffffff0000000000000000000000000000000000000000169055565b600a5473ffffffffffffffffffffffffffffffffffffffff1690565b60078054604080516020601f60027fffffffffffffffffffffffffffffffffffffffffffffffffffffffffffffffff610100600188161502019095169490940493840181900481028201810190925282815260609390929091830182828015610a0b5780601f106109e057610100808354040283529160200191610a0b565b611677611ed6565b73ffffffffffffffffffffffffffffffffffffffff168273ffffffffffffffffffffffffffffffffffffffff16141561171157604080517f08c379a000000000000000000000000000000000000000000000000000000000815260206004820152601960248201527f4552433732313a20617070726f766520746f2063616c6c657200000000000000604482015290519081900360640190fd5b806005600061171e611ed6565b73ffffffffffffffffffffffffffffffffffffffff90811682526020808301939093526040918201600090812091871680825291909352912080547fffffffffffffffffffffffffffffffffffffffffffffffffffffffffffffff00169215159290921790915561178d611ed6565b73ffffffffffffffffffffffffffffffffffffffff167f17307eab39ab6107e8899845ad3d59bd9653f200f220920489ca2b5937696c318360405180821515815260200191505060405180910390a35050565b6117f16117eb611ed6565b83611f85565b611846576040517f08c379a000000000000000000000000000000000000000000000000000000000815260040180806020018281038252603181526020018061321c6031913960400191505060405180910390fd5b61185284848484612325565b50505050565b662386f26fc1000081565b606061186e82611dc8565b6118c3576040517f08c379a000000000000000000000000000000000000000000000000000000000815260040180806020018281038252602f81526020018061319d602f913960400191505060405180910390fd5b60008281526008602090815260409182902080548351601f60027fffffffffffffffffffffffffffffffffffffffffffffffffffffffffffffffff6101006001861615020190931692909204918201849004840281018401909452808452606093928301828280156119765780601f1061194b57610100808354040283529160200191611976565b820191906000526020600020905b81548152906001019060200180831161195957829003601f168201915b5050505050905060606119876113a2565b905080516000141561199b5750905061095c565b815115611ab65780826040516020018083805190602001908083835b602083106119f457805182527fffffffffffffffffffffffffffffffffffffffffffffffffffffffffffffffe090920191602091820191016119b7565b51815160209384036101000a7fffffffffffffffffffffffffffffffffffffffffffffffffffffffffffffffff018019909216911617905285519190930192850191508083835b60208310611a7857805182527fffffffffffffffffffffffffffffffffffffffffffffffffffffffffffffffe09092019160209182019101611a3b565b6001836020036101000a038019825116818451168082178552505050505050905001925050506040516020818303038152906040529250505061095c565b80611ac085612391565b6040516020018083805190602001908083835b60208310611b1057805182527fffffffffffffffffffffffffffffffffffffffffffffffffffffffffffffffe09092019160209182019101611ad3565b51815160209384036101000a7fffffffffffffffffffffffffffffffffffffffffffffffffffffffffffffffff018019909216911617905285519190930192850191508083835b60208310611b9457805182527fffffffffffffffffffffffffffffffffffffffffffffffffffffffffffffffe09092019160209182019101611b57565b6001836020036101000a0380198251168184511680821785525050505050509050019250505060405160208183030381529060405292505050919050565b601e81565b600b5481565b73ffffffffffffffffffffffffffffffffffffffff918216600090815260056020908152604080832093909416825291909152205460ff1690565b600c5460ff1681565b601481565b611c2e611ed6565b73ffffffffffffffffffffffffffffffffffffffff16611c4c6115d4565b73ffffffffffffffffffffffffffffffffffffffff1614611cce57604080517f08c379a000000000000000000000000000000000000000000000000000000000815260206004820181905260248201527f4f776e61626c653a2063616c6c6572206973206e6f7420746865206f776e6572604482015290519081900360640190fd5b73ffffffffffffffffffffffffffffffffffffffff8116611d3a576040517f08c379a0000000000000000000000000000000000000000000000000000000008152600401808060200182810382526026815260200180612fbb6026913960400191505060405180910390fd5b600a5460405173ffffffffffffffffffffffffffffffffffffffff8084169216907f8be0079c531659141344cd1fd0a4f28419497f9722a3daafe3b4186f6b6457e090600090a3600a80547fffffffffffffffffffffffff00000000000000000000000000000000000000001673ffffffffffffffffffffffffffffffffffffffff92909216919091179055565b60006110596002836124be565b60008282018381101561105657604080517f08c379a000000000000000000000000000000000000000000000000000000000815260206004820152601b60248201527f536166654d6174683a206164646974696f6e206f766572666c6f770000000000604482015290519081900360640190fd5b600082611e5857506000611059565b82820282848281611e6557fe5b0414611056576040517f08c379a00000000000000000000000000000000000000000000000000000000081526004018080602001828103825260218152602001806131006021913960400191505060405180910390fd5b610c798282604051806020016040528060008152506124ca565b3390565b600081815260046020526040902080547fffffffffffffffffffffffff00000000000000000000000000000000000000001673ffffffffffffffffffffffffffffffffffffffff84169081179091558190611f348261137a565b73ffffffffffffffffffffffffffffffffffffffff167f8c5be1e5ebec7d5bd14f71427d1e84f3dd0314c0f7b2291e5b200ac8c7c3b92560405160405180910390a45050565b600061105982612536565b6000611f9082611dc8565b611fe5576040517f08c379a000000000000000000000000000000000000000000000000000000000815260040180806020018281038252602c815260200180613027602c913960400191505060405180910390fd5b6000611ff08361137a565b90508073ffffffffffffffffffffffffffffffffffffffff168473ffffffffffffffffffffffffffffffffffffffff16148061205f57508373ffffffffffffffffffffffffffffffffffffffff1661204784610a15565b73ffffffffffffffffffffffffffffffffffffffff16145b8061206f575061206f8185611bdd565b949350505050565b8273ffffffffffffffffffffffffffffffffffffffff166120978261137a565b73ffffffffffffffffffffffffffffffffffffffff1614612103576040517f08c379a00000000000000000000000000000000000000000000000000000000081526004018080602001828103825260298152602001806131746029913960400191505060405180910390fd5b73ffffffffffffffffffffffffffffffffffffffff821661216f576040517f08c379a0000000000000000000000000000000000000000000000000000000008152600401808060200182810382526024815260200180612fe16024913960400191505060405180910390fd5b61217a838383610dbb565b612185600082611eda565b73ffffffffffffffffffffffffffffffffffffffff831660009081526001602052604090206121b4908261253a565b5073ffffffffffffffffffffffffffffffffffffffff821660009081526001602052604090206121e49082612546565b506121f160028284612552565b50808273ffffffffffffffffffffffffffffffffffffffff168473ffffffffffffffffffffffffffffffffffffffff167fddf252ad1be2c89b69c2b068fc378daa952ba7f163c4a11628f55a4df523b3ef60405160405180910390a4505050565b60006110568383612575565b60008082116122ce57604080517f08c379a000000000000000000000000000000000000000000000000000000000815260206004820152601a60248201527f536166654d6174683a206469766973696f6e206279207a65726f000000000000604482015290519081900360640190fd5b8183816122d757fe5b049392505050565b60008080806122ee86866125f3565b9097909650945050505050565b8051610c79906009906020840190612ed3565b600061231b848484612688565b90505b9392505050565b612330848484612077565b61233c8484848461276c565b611852576040517f08c379a0000000000000000000000000000000000000000000000000000000008152600401808060200182810382526032815260200180612f896032913960400191505060405180910390fd5b6060816123d2575060408051808201909152600181527f3000000000000000000000000000000000000000000000000000000000000000602082015261095c565b8160005b81156123ea57600101600a820491506123d6565b60608167ffffffffffffffff8111801561240357600080fd5b506040519080825280601f01601f19166020018201604052801561242e576020820181803683370190505b5085935090507fffffffffffffffffffffffffffffffffffffffffffffffffffffffffffffffff82015b83156124b557600a840660300160f81b8282806001900393508151811061247b57fe5b60200101907effffffffffffffffffffffffffffffffffffffffffffffffffffffffffffff1916908160001a905350600a84049350612458565b50949350505050565b6000611056838361297c565b6124d48383612994565b6124e1600084848461276c565b610dbb576040517f08c379a0000000000000000000000000000000000000000000000000000000008152600401808060200182810382526032815260200180612f896032913960400191505060405180910390fd5b5490565b60006110568383612b1d565b60006110568383612c01565b600061231b848473ffffffffffffffffffffffffffffffffffffffff8516612c4b565b815460009082106125d1576040517f08c379a0000000000000000000000000000000000000000000000000000000008152600401808060200182810382526022815260200180612f676022913960400191505060405180910390fd5b8260000182815481106125e057fe5b9060005260206000200154905092915050565b815460009081908310612651576040517f08c379a00000000000000000000000000000000000000000000000000000000081526004018080602001828103825260228152602001806130de6022913960400191505060405180910390fd5b600084600001848154811061266257fe5b906000526020600020906002020190508060000154816001015492509250509250929050565b6000828152600184016020526040812054828161273d576040517f08c379a00000000000000000000000000000000000000000000000000000000081526004018080602001828103825283818151815260200191508051906020019080838360005b838110156127025781810151838201526020016126ea565b50505050905090810190601f16801561272f5780820380516001836020036101000a031916815260200191505b509250505060405180910390fd5b5084600001600182038154811061275057fe5b9060005260206000209060020201600101549150509392505050565b600061278d8473ffffffffffffffffffffffffffffffffffffffff16612ce2565b6127995750600161206f565b60606129117f150b7a02000000000000000000000000000000000000000000000000000000006127c7611ed6565b888787604051602401808573ffffffffffffffffffffffffffffffffffffffff1681526020018473ffffffffffffffffffffffffffffffffffffffff16815260200183815260200180602001828103825283818151815260200191508051906020019080838360005b83811015612848578181015183820152602001612830565b50505050905090810190601f1680156128755780820380516001836020036101000a031916815260200191505b5095505050505050604051602081830303815290604052907bffffffffffffffffffffffffffffffffffffffffffffffffffffffff19166020820180517bffffffffffffffffffffffffffffffffffffffffffffffffffffffff8381831617835250505050604051806060016040528060328152602001612f896032913973ffffffffffffffffffffffffffffffffffffffff88169190612ce8565b9050600081806020019051602081101561292a57600080fd5b50517fffffffff00000000000000000000000000000000000000000000000000000000167f150b7a02000000000000000000000000000000000000000000000000000000001492505050949350505050565b60009081526001919091016020526040902054151590565b73ffffffffffffffffffffffffffffffffffffffff8216612a1657604080517f08c379a000000000000000000000000000000000000000000000000000000000815260206004820181905260248201527f4552433732313a206d696e7420746f20746865207a65726f2061646472657373604482015290519081900360640190fd5b612a1f81611dc8565b15612a8b57604080517f08c379a000000000000000000000000000000000000000000000000000000000815260206004820152601c60248201527f4552433732313a20746f6b656e20616c7265616479206d696e74656400000000604482015290519081900360640190fd5b612a9760008383610dbb565b73ffffffffffffffffffffffffffffffffffffffff82166000908152600160205260409020612ac69082612546565b50612ad360028284612552565b50604051819073ffffffffffffffffffffffffffffffffffffffff8416906000907fddf252ad1be2c89b69c2b068fc378daa952ba7f163c4a11628f55a4df523b3ef908290a45050565b60008181526001830160205260408120548015612bf75783547fffffffffffffffffffffffffffffffffffffffffffffffffffffffffffffffff8083019190810190600090879083908110612b6e57fe5b9060005260206000200154905080876000018481548110612b8b57fe5b600091825260208083209091019290925582815260018981019092526040902090840190558654879080612bbb57fe5b60019003818190600052602060002001600090559055866001016000878152602001908152602001600020600090556001945050505050611059565b6000915050611059565b6000612c0d838361297c565b612c4357508154600181810184556000848152602080822090930184905584548482528286019093526040902091909155611059565b506000611059565b600082815260018401602052604081205480612cb057505060408051808201825283815260208082018481528654600181810189556000898152848120955160029093029095019182559151908201558654868452818801909252929091205561231e565b82856000016001830381548110612cc357fe5b906000526020600020906002020160010181905550600091505061231e565b3b151590565b606061231b848460008585612cfc85612ce2565b612d6757604080517f08c379a000000000000000000000000000000000000000000000000000000000815260206004820152601d60248201527f416464726573733a2063616c6c20746f206e6f6e2d636f6e7472616374000000604482015290519081900360640190fd5b600060608673ffffffffffffffffffffffffffffffffffffffff1685876040518082805190602001908083835b60208310612dd157805182527fffffffffffffffffffffffffffffffffffffffffffffffffffffffffffffffe09092019160209182019101612d94565b6001836020036101000a03801982511681845116808217855250505050505090500191505060006040518083038185875af1925050503d8060008114612e33576040519150601f19603f3d011682016040523d82523d6000602084013e612e38565b606091505b5091509150612e48828286612e53565b979650505050505050565b60608315612e6257508161231e565b825115612e725782518084602001fd5b6040517f08c379a00000000000000000000000000000000000000000000000000000000081526020600482018181528451602484015284518593919283926044019190850190808383600083156127025781810151838201526020016126ea565b828054600181600116156101000203166002900490600052602060002090601f016020900481019282601f10612f1457805160ff1916838001178555612f41565b82800160010185558215612f41579182015b82811115612f41578251825591602001919060010190612f26565b50612f4d929150612f51565b5090565b5b80821115612f4d5760008155600101612f5256fe456e756d657261626c655365743a20696e646578206f7574206f6620626f756e64734552433732313a207472616e7366657220746f206e6f6e20455243373231526563656976657220696d706c656d656e7465724f776e61626c653a206e6577206f776e657220697320746865207a65726f20616464726573734552433732313a207472616e7366657220746f20746865207a65726f206164647265737343616e206f6e6c79206d696e742031303020746f6b656e7320617420612074696d654552433732313a206f70657261746f7220717565727920666f72206e6f6e6578697374656e7420746f6b656e4552433732313a20617070726f76652063616c6c6572206973206e6f74206f776e6572206e6f7220617070726f76656420666f7220616c6c4552433732313a2062616c616e636520717565727920666f7220746865207a65726f20616464726573734552433732313a206f776e657220717565727920666f72206e6f6e6578697374656e7420746f6b656e456e756d657261626c654d61703a20696e646578206f7574206f6620626f756e6473536166654d6174683a206d756c7469706c69636174696f6e206f766572666c6f774552433732313a20617070726f76656420717565727920666f72206e6f6e6578697374656e7420746f6b656e53616c65206d7573742062652061637469766520746f206d696e74204e6561706f6c6974616e734552433732313a207472616e73666572206f6620746f6b656e2074686174206973206e6f74206f776e4552433732314d657461646174613a2055524920717565727920666f72206e6f6e6578697374656e7420746f6b656e507572636861736520776f756c6420657863656564206d617820737570706c79206f66204e6561706f6c6974616e734552433732313a20617070726f76616c20746f2063757272656e74206f776e65724552433732313a207472616e736665722063616c6c6572206973206e6f74206f776e6572206e6f7220617070726f766564a2646970667358221220acf78e0fb7485da8ac2ea640827a3a9caf23b8f88721f6c645c00c4645e0c94e64736f6c63430007000033",
  "linkReferences": {},
  "deployedLinkReferences": {}
}